{
  "contractName": "BigToken",
  "abi": [
    {
      "inputs": [],
      "payable": false,
      "stateMutability": "nonpayable",
      "type": "constructor"
    },
    {
      "constant": true,
      "inputs": [],
      "name": "totalSupply",
      "outputs": [
        {
          "internalType": "uint256",
          "name": "",
          "type": "uint256"
        }
      ],
      "payable": false,
      "stateMutability": "view",
      "type": "function"
    }
  ],
  "bytecode": "0x6080604052348015600f57600080fd5b50620f42406000556080806100256000396000f3fe6080604052348015600f57600080fd5b506004361060285760003560e01c806318160ddd14602d575b600080fd5b60336045565b60408051918252519081900360200190f35b6000548156fea265627a7a723158202e01d664d5fd74abe1f96a149097775422db9b5b072f3c94adcf74586563c59864736f6c63430005100032",
  "source": "// SPDX-License-Identifier: MIT\npragma solidity >=0.4.22 <0.9.0;\n\ncontract BigToken {\n  // Constructor\n  // Set the number of tokens\n  // Read the total number of tokens\n\n  uint256 public totalSupply;\n\n  constructor () public {\n    totalSupply = 1000000;\n  }\n}\n",
  "sourcePath": "C:\\Users\\HP\\Desktop\\Solidity\\token_sale\\contracts\\BigToken.sol",
  "compiler": {
    "name": "solc",
    "version": "0.5.16+commit.9c3226ce.Emscripten.clang"
  },
  "schemaVersion": "3.4.16",
  "updatedAt": "2024-04-08T22:24:07.032Z",
  "networkType": "ethereum",
  "devdoc": {
    "methods": {}
  },
  "userdoc": {
    "methods": {}
  }
}