{
  "contractName": "BigToken",
  "abi": [
    {
      "inputs": [
        {
          "internalType": "uint256",
          "name": "_initialSupply",
          "type": "uint256"
        }
      ],
      "payable": false,
      "stateMutability": "nonpayable",
      "type": "constructor"
    },
    {
      "constant": true,
      "inputs": [],
      "name": "totalSupply",
      "outputs": [
        {
          "internalType": "uint256",
          "name": "",
          "type": "uint256"
        }
      ],
      "payable": false,
      "stateMutability": "view",
      "type": "function"
    }
  ],
  "bytecode": "0x608060405234801561001057600080fd5b506040516100c63803806100c68339818101604052602081101561003357600080fd5b50516000556080806100466000396000f3fe6080604052348015600f57600080fd5b506004361060285760003560e01c806318160ddd14602d575b600080fd5b60336045565b60408051918252519081900360200190f35b6000548156fea265627a7a72315820ec0ee285c280f146480d6d9eed6e95367a34112944b4f5fdfcfea24c1f1d32aa64736f6c63430005100032",
  "source": "// SPDX-License-Identifier: MIT\npragma solidity >=0.4.22 <0.9.0;\n\ncontract BigToken {\n  // Constructor\n  // Set the number of tokens\n  // Read the total number of tokens\n\n  uint256 public totalSupply;\n\n  constructor (uint256 _initialSupply) public {\n    totalSupply = _initialSupply;\n  }\n}\n",
  "sourcePath": "C:\\Users\\HP\\Desktop\\Solidity\\token_sale\\contracts\\BigToken.sol",
  "compiler": {
    "name": "solc",
    "version": "0.5.16+commit.9c3226ce.Emscripten.clang"
  },
  "schemaVersion": "3.4.16",
  "updatedAt": "2024-04-09T07:08:57.755Z",
  "devdoc": {
    "methods": {}
  },
  "userdoc": {
    "methods": {}
  }
}